{
  "contractName": "ToDoList",
  "abi": [
    {
      "constant": true,
      "inputs": [],
      "name": "taskCount",
      "outputs": [
        {
          "internalType": "uint256",
          "name": "",
          "type": "uint256"
        }
      ],
      "payable": false,
      "stateMutability": "view",
      "type": "function"
    }
  ],
  "bytecode": "0x608060405260008055348015601357600080fd5b506084806100226000396000f3fe6080604052348015600f57600080fd5b506004361060285760003560e01c8063b6cb58a514602d575b600080fd5b60336049565b6040518082815260200191505060405180910390f35b6000548156fea265627a7a723158209de766ab7f280aebde506fd595e3f4e16008df15fa5db679c1d190883b56e5e464736f6c63430005100032",
  "source": "pragma solidity ^0.5.0;\n\n/**\n * The ToDoList contract does this and that...\n */\ncontract ToDoList {\n  uint public taskCount = 0;\n}",
  "sourcePath": "/Users/maxwalts/Desktop/Blockchain@Mich/eth-todo-list/contracts/ToDoList.sol",
  "compiler": {
    "name": "solc",
    "version": "0.5.16+commit.9c3226ce.Emscripten.clang"
  },
  "schemaVersion": "3.2.3",
  "updatedAt": "2020-08-12T07:44:40.555Z",
  "networkType": "ethereum",
  "devdoc": {
    "methods": {}
  },
  "userdoc": {
    "methods": {},
    "notice": "The ToDoList contract does this and that..."
  }
}